{
  "_format": "hh-sol-artifact-1",
  "contractName": "ERC1155",
  "sourceName": "contracts/ERC1155.sol",
  "abi": [
    {
      "anonymous": false,
      "inputs": [
        {
          "indexed": true,
          "internalType": "address",
          "name": "_owner",
          "type": "address"
        },
        {
          "indexed": true,
          "internalType": "address",
          "name": "_operator",
          "type": "address"
        },
        {
          "indexed": false,
          "internalType": "bool",
          "name": "_approved",
          "type": "bool"
        }
      ],
      "name": "ApprovalForAll",
      "type": "event"
    },
    {
      "anonymous": false,
      "inputs": [
        {
          "indexed": true,
          "internalType": "address",
          "name": "_operator",
          "type": "address"
        },
        {
          "indexed": true,
          "internalType": "address",
          "name": "_from",
          "type": "address"
        },
        {
          "indexed": true,
          "internalType": "address",
          "name": "_to",
          "type": "address"
        },
        {
          "indexed": false,
          "internalType": "uint256[]",
          "name": "_ids",
          "type": "uint256[]"
        },
        {
          "indexed": false,
          "internalType": "uint256[]",
          "name": "_values",
          "type": "uint256[]"
        }
      ],
      "name": "TransferBatch",
      "type": "event"
    },
    {
      "anonymous": false,
      "inputs": [
        {
          "indexed": true,
          "internalType": "address",
          "name": "_operator",
          "type": "address"
        },
        {
          "indexed": true,
          "internalType": "address",
          "name": "_from",
          "type": "address"
        },
        {
          "indexed": true,
          "internalType": "address",
          "name": "_to",
          "type": "address"
        },
        {
          "indexed": false,
          "internalType": "uint256",
          "name": "_id",
          "type": "uint256"
        },
        {
          "indexed": false,
          "internalType": "uint256",
          "name": "_value",
          "type": "uint256"
        }
      ],
      "name": "TransferSingle",
      "type": "event"
    },
    {
      "anonymous": false,
      "inputs": [
        {
          "indexed": false,
          "internalType": "string",
          "name": "_value",
          "type": "string"
        },
        {
          "indexed": true,
          "internalType": "uint256",
          "name": "_id",
          "type": "uint256"
        }
      ],
      "name": "URI",
      "type": "event"
    },
    {
      "inputs": [
        {
          "internalType": "address",
          "name": "from",
          "type": "address"
        },
        {
          "internalType": "address",
          "name": "to",
          "type": "address"
        },
        {
          "internalType": "uint256",
          "name": "id",
          "type": "uint256"
        },
        {
          "internalType": "uint256",
          "name": "value",
          "type": "uint256"
        }
      ],
      "name": "_transfer",
      "outputs": [],
      "stateMutability": "nonpayable",
      "type": "function"
    },
    {
      "inputs": [
        {
          "internalType": "address",
          "name": "_owner",
          "type": "address"
        },
        {
          "internalType": "uint256",
          "name": "_id",
          "type": "uint256"
        }
      ],
      "name": "balanceOf",
      "outputs": [
        {
          "internalType": "uint256",
          "name": "",
          "type": "uint256"
        }
      ],
      "stateMutability": "view",
      "type": "function"
    },
    {
      "inputs": [
        {
          "internalType": "address[]",
          "name": "_owners",
          "type": "address[]"
        },
        {
          "internalType": "uint256[]",
          "name": "_ids",
          "type": "uint256[]"
        }
      ],
      "name": "balanceOfBatch",
      "outputs": [
        {
          "internalType": "uint256[]",
          "name": "",
          "type": "uint256[]"
        }
      ],
      "stateMutability": "view",
      "type": "function"
    },
    {
      "inputs": [
        {
          "internalType": "address",
          "name": "_owner",
          "type": "address"
        },
        {
          "internalType": "address",
          "name": "_operator",
          "type": "address"
        }
      ],
      "name": "isApprovedForAll",
      "outputs": [
        {
          "internalType": "bool",
          "name": "",
          "type": "bool"
        }
      ],
      "stateMutability": "view",
      "type": "function"
    },
    {
      "inputs": [
        {
          "internalType": "address",
          "name": "_from",
          "type": "address"
        },
        {
          "internalType": "address",
          "name": "_to",
          "type": "address"
        },
        {
          "internalType": "uint256[]",
          "name": "_ids",
          "type": "uint256[]"
        },
        {
          "internalType": "uint256[]",
          "name": "_values",
          "type": "uint256[]"
        },
        {
          "internalType": "bytes",
          "name": "_data",
          "type": "bytes"
        }
      ],
      "name": "safeBatchTransferFrom",
      "outputs": [],
      "stateMutability": "nonpayable",
      "type": "function"
    },
    {
      "inputs": [
        {
          "internalType": "address",
          "name": "_from",
          "type": "address"
        },
        {
          "internalType": "address",
          "name": "_to",
          "type": "address"
        },
        {
          "internalType": "uint256",
          "name": "_id",
          "type": "uint256"
        },
        {
          "internalType": "uint256",
          "name": "_value",
          "type": "uint256"
        },
        {
          "internalType": "bytes",
          "name": "_data",
          "type": "bytes"
        }
      ],
      "name": "safeTransferFrom",
      "outputs": [],
      "stateMutability": "nonpayable",
      "type": "function"
    },
    {
      "inputs": [
        {
          "internalType": "address",
          "name": "_operator",
          "type": "address"
        },
        {
          "internalType": "bool",
          "name": "_approved",
          "type": "bool"
        }
      ],
      "name": "setApprovalForAll",
      "outputs": [],
      "stateMutability": "nonpayable",
      "type": "function"
    },
    {
      "inputs": [
        {
          "internalType": "bytes4",
          "name": "interfaceID",
          "type": "bytes4"
        }
      ],
      "name": "supportsInterface",
      "outputs": [
        {
          "internalType": "bool",
          "name": "",
          "type": "bool"
        }
      ],
      "stateMutability": "pure",
      "type": "function"
    }
  ],
  "bytecode": "0x608060405234801561001057600080fd5b506119ad806100206000396000f3fe608060405234801561001057600080fd5b50600436106100875760003560e01c80634e1273f41161005b5780634e1273f414610124578063a22cb46514610154578063e985e9c514610170578063f242432a146101a057610087565b8062fdd58e1461008c57806301ffc9a7146100bc5780631d6456c4146100ec5780632eb2c2d614610108575b600080fd5b6100a660048036038101906100a1919061107d565b6101bc565b6040516100b39190611525565b60405180910390f35b6100d660048036038101906100d1919061112e565b610285565b6040516100e391906113ea565b60405180910390f35b61010660048036038101906101019190610f4c565b6102b7565b005b610122600480360381019061011d9190610e80565b61041a565b005b61013e600480360381019061013991906110b9565b6106d1565b60405161014b91906113c8565b60405180910390f35b61016e60048036038101906101699190611041565b61089a565b005b61018a60048036038101906101859190610e44565b610997565b60405161019791906113ea565b60405180910390f35b6101ba60048036038101906101b59190610faf565b610b0a565b005b60008073ffffffffffffffffffffffffffffffffffffffff168373ffffffffffffffffffffffffffffffffffffffff16141561022d576040517f08c379a000000000000000000000000000000000000000000000000000000000815260040161022490611405565b60405180910390fd5b6000808473ffffffffffffffffffffffffffffffffffffffff1673ffffffffffffffffffffffffffffffffffffffff168152602001908152602001600020600083815260200190815260200160002054905092915050565b600063d9b67a2660e01b827bffffffffffffffffffffffffffffffffffffffffffffffffffffffff1916149050919050565b60008060008673ffffffffffffffffffffffffffffffffffffffff1673ffffffffffffffffffffffffffffffffffffffff16815260200190815260200160002060008481526020019081526020016000205490508181101561034e576040517f08c379a0000000000000000000000000000000000000000000000000000000008152600401610345906114c5565b60405180910390fd5b818161035a9190611609565b6000808773ffffffffffffffffffffffffffffffffffffffff1673ffffffffffffffffffffffffffffffffffffffff168152602001908152602001600020600085815260200190815260200160002081905550816000808673ffffffffffffffffffffffffffffffffffffffff1673ffffffffffffffffffffffffffffffffffffffff1681526020019081526020016000206000858152602001908152602001600020600082825461040c91906115b3565b925050819055505050505050565b600073ffffffffffffffffffffffffffffffffffffffff168773ffffffffffffffffffffffffffffffffffffffff16141561048a576040517f08c379a0000000000000000000000000000000000000000000000000000000008152600401610481906114e5565b60405180910390fd5b3373ffffffffffffffffffffffffffffffffffffffff168873ffffffffffffffffffffffffffffffffffffffff1614806104ca57506104c98833610997565b5b610509576040517f08c379a000000000000000000000000000000000000000000000000000000000815260040161050090611425565b60405180910390fd5b838390508686905014610551576040517f08c379a000000000000000000000000000000000000000000000000000000000815260040161054890611445565b60405180910390fd5b60005b868690508110156105fc576105e9898989898581811061059d577f4e487b7100000000000000000000000000000000000000000000000000000000600052603260045260246000fd5b905060200201358888868181106105dd577f4e487b7100000000000000000000000000000000000000000000000000000000600052603260045260246000fd5b905060200201356102b7565b80806105f4906116c0565b915050610554565b5061060687610cd3565b610645576040517f08c379a000000000000000000000000000000000000000000000000000000000815260040161063c906114a5565b60405180910390fd5b8673ffffffffffffffffffffffffffffffffffffffff168873ffffffffffffffffffffffffffffffffffffffff163373ffffffffffffffffffffffffffffffffffffffff167f4a39dc06d4c0dbc64b70af90fd698a233a518aa5d07e595d983b8c0526c8f7fb898989896040516106bf949392919061138d565b60405180910390a45050505050505050565b606082829050858590501461071b576040517f08c379a000000000000000000000000000000000000000000000000000000000815260040161071290611505565b60405180910390fd5b60008585905067ffffffffffffffff811115610760577f4e487b7100000000000000000000000000000000000000000000000000000000600052604160045260246000fd5b60405190808252806020026020018201604052801561078e5781602001602082028036833780820191505090505b50905060005b8686905081101561088d576108358787838181106107db577f4e487b7100000000000000000000000000000000000000000000000000000000600052603260045260246000fd5b90506020020160208101906107f09190610e1b565b868684818110610829577f4e487b7100000000000000000000000000000000000000000000000000000000600052603260045260246000fd5b905060200201356101bc565b82828151811061086e577f4e487b7100000000000000000000000000000000000000000000000000000000600052603260045260246000fd5b6020026020010181815250508080610885906116c0565b915050610794565b5080915050949350505050565b60018060003373ffffffffffffffffffffffffffffffffffffffff1673ffffffffffffffffffffffffffffffffffffffff16815260200190815260200160002060008473ffffffffffffffffffffffffffffffffffffffff1673ffffffffffffffffffffffffffffffffffffffff16815260200190815260200160002060006101000a81548160ff0219169083151502179055508173ffffffffffffffffffffffffffffffffffffffff163373ffffffffffffffffffffffffffffffffffffffff167f17307eab39ab6107e8899845ad3d59bd9653f200f220920489ca2b5937696c318360405161098b91906113ea565b60405180910390a35050565b60008073ffffffffffffffffffffffffffffffffffffffff168373ffffffffffffffffffffffffffffffffffffffff161415610a08576040517f08c379a00000000000000000000000000000000000000000000000000000000081526004016109ff90611485565b60405180910390fd5b600073ffffffffffffffffffffffffffffffffffffffff168273ffffffffffffffffffffffffffffffffffffffff161415610a78576040517f08c379a0000000000000000000000000000000000000000000000000000000008152600401610a6f90611465565b60405180910390fd5b600160008473ffffffffffffffffffffffffffffffffffffffff1673ffffffffffffffffffffffffffffffffffffffff16815260200190815260200160002060008373ffffffffffffffffffffffffffffffffffffffff1673ffffffffffffffffffffffffffffffffffffffff16815260200190815260200160002060009054906101000a900460ff16905092915050565b600073ffffffffffffffffffffffffffffffffffffffff168573ffffffffffffffffffffffffffffffffffffffff161415610b7a576040517f08c379a0000000000000000000000000000000000000000000000000000000008152600401610b71906114e5565b60405180910390fd5b3373ffffffffffffffffffffffffffffffffffffffff168673ffffffffffffffffffffffffffffffffffffffff161480610bba5750610bb98633610997565b5b610bf9576040517f08c379a0000000000000000000000000000000000000000000000000000000008152600401610bf090611425565b60405180910390fd5b610c0285610cde565b610c41576040517f08c379a0000000000000000000000000000000000000000000000000000000008152600401610c38906114a5565b60405180910390fd5b610c4d868686866102b7565b8473ffffffffffffffffffffffffffffffffffffffff168673ffffffffffffffffffffffffffffffffffffffff163373ffffffffffffffffffffffffffffffffffffffff167fc3d58168c5ae7397731d063d5bbf3d657854427343f4c083240f7aacaa2d0f628787604051610cc3929190611540565b60405180910390a4505050505050565b600060019050919050565b600060019050919050565b600081359050610cf88161191b565b92915050565b60008083601f840112610d1057600080fd5b8235905067ffffffffffffffff811115610d2957600080fd5b602083019150836020820283011115610d4157600080fd5b9250929050565b60008083601f840112610d5a57600080fd5b8235905067ffffffffffffffff811115610d7357600080fd5b602083019150836020820283011115610d8b57600080fd5b9250929050565b600081359050610da181611932565b92915050565b600081359050610db681611949565b92915050565b60008083601f840112610dce57600080fd5b8235905067ffffffffffffffff811115610de757600080fd5b602083019150836001820283011115610dff57600080fd5b9250929050565b600081359050610e1581611960565b92915050565b600060208284031215610e2d57600080fd5b6000610e3b84828501610ce9565b91505092915050565b60008060408385031215610e5757600080fd5b6000610e6585828601610ce9565b9250506020610e7685828601610ce9565b9150509250929050565b60008060008060008060008060a0898b031215610e9c57600080fd5b6000610eaa8b828c01610ce9565b9850506020610ebb8b828c01610ce9565b975050604089013567ffffffffffffffff811115610ed857600080fd5b610ee48b828c01610d48565b9650965050606089013567ffffffffffffffff811115610f0357600080fd5b610f0f8b828c01610d48565b9450945050608089013567ffffffffffffffff811115610f2e57600080fd5b610f3a8b828c01610dbc565b92509250509295985092959890939650565b60008060008060808587031215610f6257600080fd5b6000610f7087828801610ce9565b9450506020610f8187828801610ce9565b9350506040610f9287828801610e06565b9250506060610fa387828801610e06565b91505092959194509250565b60008060008060008060a08789031215610fc857600080fd5b6000610fd689828a01610ce9565b9650506020610fe789828a01610ce9565b9550506040610ff889828a01610e06565b945050606061100989828a01610e06565b935050608087013567ffffffffffffffff81111561102657600080fd5b61103289828a01610dbc565b92509250509295509295509295565b6000806040838503121561105457600080fd5b600061106285828601610ce9565b925050602061107385828601610d92565b9150509250929050565b6000806040838503121561109057600080fd5b600061109e85828601610ce9565b92505060206110af85828601610e06565b9150509250929050565b600080600080604085870312156110cf57600080fd5b600085013567ffffffffffffffff8111156110e957600080fd5b6110f587828801610cfe565b9450945050602085013567ffffffffffffffff81111561111457600080fd5b61112087828801610d48565b925092505092959194509250565b60006020828403121561114057600080fd5b600061114e84828501610da7565b91505092915050565b6000611163838361136f565b60208301905092915050565b600061117b8385611591565b93507f07ffffffffffffffffffffffffffffffffffffffffffffffffffffffffffffff8311156111aa57600080fd5b6020830292506111bb8385846116b1565b82840190509392505050565b60006111d282611579565b6111dc8185611591565b93506111e783611569565b8060005b838110156112185781516111ff8882611157565b975061120a83611584565b9250506001810190506111eb565b5085935050505092915050565b61122e8161164f565b82525050565b60006112416015836115a2565b915061124c82611738565b602082019050919050565b6000611264602d836115a2565b915061126f82611761565b604082019050919050565b60006112876015836115a2565b9150611292826117b0565b602082019050919050565b60006112aa6011836115a2565b91506112b5826117d9565b602082019050919050565b60006112cd600e836115a2565b91506112d882611802565b602082019050919050565b60006112f06020836115a2565b91506112fb8261182b565b602082019050919050565b60006113136021836115a2565b915061131e82611854565b604082019050919050565b60006113366012836115a2565b9150611341826118a3565b602082019050919050565b60006113596030836115a2565b9150611364826118cc565b604082019050919050565b611378816116a7565b82525050565b611387816116a7565b82525050565b600060408201905081810360008301526113a881868861116f565b905081810360208301526113bd81848661116f565b905095945050505050565b600060208201905081810360008301526113e281846111c7565b905092915050565b60006020820190506113ff6000830184611225565b92915050565b6000602082019050818103600083015261141e81611234565b9050919050565b6000602082019050818103600083015261143e81611257565b9050919050565b6000602082019050818103600083015261145e8161127a565b9050919050565b6000602082019050818103600083015261147e8161129d565b9050919050565b6000602082019050818103600083015261149e816112c0565b9050919050565b600060208201905081810360008301526114be816112e3565b9050919050565b600060208201905081810360008301526114de81611306565b9050919050565b600060208201905081810360008301526114fe81611329565b9050919050565b6000602082019050818103600083015261151e8161134c565b9050919050565b600060208201905061153a600083018461137e565b92915050565b6000604082019050611555600083018561137e565b611562602083018461137e565b9392505050565b6000819050602082019050919050565b600081519050919050565b6000602082019050919050565b600082825260208201905092915050565b600082825260208201905092915050565b60006115be826116a7565b91506115c9836116a7565b9250827fffffffffffffffffffffffffffffffffffffffffffffffffffffffffffffffff038211156115fe576115fd611709565b5b828201905092915050565b6000611614826116a7565b915061161f836116a7565b92508282101561163257611631611709565b5b828203905092915050565b600061164882611687565b9050919050565b60008115159050919050565b60007fffffffff0000000000000000000000000000000000000000000000000000000082169050919050565b600073ffffffffffffffffffffffffffffffffffffffff82169050919050565b6000819050919050565b82818337600083830152505050565b60006116cb826116a7565b91507fffffffffffffffffffffffffffffffffffffffffffffffffffffffffffffffff8214156116fe576116fd611709565b5b600182019050919050565b7f4e487b7100000000000000000000000000000000000000000000000000000000600052601160045260246000fd5b7f4f776e65722061646472657373206973207a65726f0000000000000000000000600082015250565b7f6d73672e73656e646572206e6f74206f776e6572206f7220617070726f76656460008201527f20666f72207472616e7366657200000000000000000000000000000000000000602082015250565b7f6172726179206c656e677468206d69736d617463680000000000000000000000600082015250565b7f5f6f70657261746f72206973207a65726f000000000000000000000000000000600082015250565b7f5f6f776e6572206973207a65726f000000000000000000000000000000000000600082015250565b7f6f6e4552433131355265636569766564206e6f7420696d706c656d656e746564600082015250565b7f496e73737566696369656e742062616c616e636520666f72207472616e73666560008201527f7200000000000000000000000000000000000000000000000000000000000000602082015250565b7f546f2061646472657373206973207a65726f0000000000000000000000000000600082015250565b7f5f6f776e657273206172726179206c656e67746820756e6571616c20746f205f60008201527f696473206172726179206c656e67746800000000000000000000000000000000602082015250565b6119248161163d565b811461192f57600080fd5b50565b61193b8161164f565b811461194657600080fd5b50565b6119528161165b565b811461195d57600080fd5b50565b611969816116a7565b811461197457600080fd5b5056fea2646970667358221220792e661639817dd1017987e3177f0e67c8f6439c3b746af0a9b9a5ebec4cde5d64736f6c63430008040033",
  "linkReferences": {},
  "deployedLinkReferences": {}
}