{
  "_format": "hh-sol-artifact-1",
  "contractName": "SuperMarioWorldCollection",
  "sourceName": "contracts/SuperMarioWorldCollection.sol",
  "abi": [
    {
      "inputs": [
        {
          "internalType": "string",
          "name": "_name",
          "type": "string"
        },
        {
          "internalType": "string",
          "name": "_symbol",
          "type": "string"
        },
        {
          "internalType": "string",
          "name": "_baseUri",
          "type": "string"
        }
      ],
      "stateMutability": "nonpayable",
      "type": "constructor"
    },
    {
      "anonymous": false,
      "inputs": [
        {
          "indexed": true,
          "internalType": "address",
          "name": "account",
          "type": "address"
        },
        {
          "indexed": true,
          "internalType": "address",
          "name": "operator",
          "type": "address"
        },
        {
          "indexed": false,
          "internalType": "bool",
          "name": "approved",
          "type": "bool"
        }
      ],
      "name": "ApprovalForAll",
      "type": "event"
    },
    {
      "anonymous": false,
      "inputs": [
        {
          "indexed": true,
          "internalType": "address",
          "name": "previousOwner",
          "type": "address"
        },
        {
          "indexed": true,
          "internalType": "address",
          "name": "newOwner",
          "type": "address"
        }
      ],
      "name": "OwnershipTransferred",
      "type": "event"
    },
    {
      "anonymous": false,
      "inputs": [
        {
          "indexed": true,
          "internalType": "address",
          "name": "operator",
          "type": "address"
        },
        {
          "indexed": true,
          "internalType": "address",
          "name": "from",
          "type": "address"
        },
        {
          "indexed": true,
          "internalType": "address",
          "name": "to",
          "type": "address"
        },
        {
          "indexed": false,
          "internalType": "uint256[]",
          "name": "ids",
          "type": "uint256[]"
        },
        {
          "indexed": false,
          "internalType": "uint256[]",
          "name": "values",
          "type": "uint256[]"
        }
      ],
      "name": "TransferBatch",
      "type": "event"
    },
    {
      "anonymous": false,
      "inputs": [
        {
          "indexed": true,
          "internalType": "address",
          "name": "operator",
          "type": "address"
        },
        {
          "indexed": true,
          "internalType": "address",
          "name": "from",
          "type": "address"
        },
        {
          "indexed": true,
          "internalType": "address",
          "name": "to",
          "type": "address"
        },
        {
          "indexed": false,
          "internalType": "uint256",
          "name": "id",
          "type": "uint256"
        },
        {
          "indexed": false,
          "internalType": "uint256",
          "name": "value",
          "type": "uint256"
        }
      ],
      "name": "TransferSingle",
      "type": "event"
    },
    {
      "anonymous": false,
      "inputs": [
        {
          "indexed": false,
          "internalType": "string",
          "name": "value",
          "type": "string"
        },
        {
          "indexed": true,
          "internalType": "uint256",
          "name": "id",
          "type": "uint256"
        }
      ],
      "name": "URI",
      "type": "event"
    },
    {
      "inputs": [
        {
          "internalType": "address",
          "name": "account",
          "type": "address"
        },
        {
          "internalType": "uint256",
          "name": "id",
          "type": "uint256"
        }
      ],
      "name": "balanceOf",
      "outputs": [
        {
          "internalType": "uint256",
          "name": "",
          "type": "uint256"
        }
      ],
      "stateMutability": "view",
      "type": "function"
    },
    {
      "inputs": [
        {
          "internalType": "address[]",
          "name": "accounts",
          "type": "address[]"
        },
        {
          "internalType": "uint256[]",
          "name": "ids",
          "type": "uint256[]"
        }
      ],
      "name": "balanceOfBatch",
      "outputs": [
        {
          "internalType": "uint256[]",
          "name": "",
          "type": "uint256[]"
        }
      ],
      "stateMutability": "view",
      "type": "function"
    },
    {
      "inputs": [],
      "name": "baseUri",
      "outputs": [
        {
          "internalType": "string",
          "name": "",
          "type": "string"
        }
      ],
      "stateMutability": "view",
      "type": "function"
    },
    {
      "inputs": [
        {
          "internalType": "address",
          "name": "account",
          "type": "address"
        },
        {
          "internalType": "address",
          "name": "operator",
          "type": "address"
        }
      ],
      "name": "isApprovedForAll",
      "outputs": [
        {
          "internalType": "bool",
          "name": "",
          "type": "bool"
        }
      ],
      "stateMutability": "view",
      "type": "function"
    },
    {
      "inputs": [
        {
          "internalType": "uint256",
          "name": "amount",
          "type": "uint256"
        }
      ],
      "name": "mint",
      "outputs": [],
      "stateMutability": "nonpayable",
      "type": "function"
    },
    {
      "inputs": [],
      "name": "name",
      "outputs": [
        {
          "internalType": "string",
          "name": "",
          "type": "string"
        }
      ],
      "stateMutability": "view",
      "type": "function"
    },
    {
      "inputs": [],
      "name": "owner",
      "outputs": [
        {
          "internalType": "address",
          "name": "",
          "type": "address"
        }
      ],
      "stateMutability": "view",
      "type": "function"
    },
    {
      "inputs": [],
      "name": "renounceOwnership",
      "outputs": [],
      "stateMutability": "nonpayable",
      "type": "function"
    },
    {
      "inputs": [
        {
          "internalType": "address",
          "name": "from",
          "type": "address"
        },
        {
          "internalType": "address",
          "name": "to",
          "type": "address"
        },
        {
          "internalType": "uint256[]",
          "name": "ids",
          "type": "uint256[]"
        },
        {
          "internalType": "uint256[]",
          "name": "amounts",
          "type": "uint256[]"
        },
        {
          "internalType": "bytes",
          "name": "data",
          "type": "bytes"
        }
      ],
      "name": "safeBatchTransferFrom",
      "outputs": [],
      "stateMutability": "nonpayable",
      "type": "function"
    },
    {
      "inputs": [
        {
          "internalType": "address",
          "name": "from",
          "type": "address"
        },
        {
          "internalType": "address",
          "name": "to",
          "type": "address"
        },
        {
          "internalType": "uint256",
          "name": "id",
          "type": "uint256"
        },
        {
          "internalType": "uint256",
          "name": "amount",
          "type": "uint256"
        },
        {
          "internalType": "bytes",
          "name": "data",
          "type": "bytes"
        }
      ],
      "name": "safeTransferFrom",
      "outputs": [],
      "stateMutability": "nonpayable",
      "type": "function"
    },
    {
      "inputs": [
        {
          "internalType": "address",
          "name": "operator",
          "type": "address"
        },
        {
          "internalType": "bool",
          "name": "approved",
          "type": "bool"
        }
      ],
      "name": "setApprovalForAll",
      "outputs": [],
      "stateMutability": "nonpayable",
      "type": "function"
    },
    {
      "inputs": [
        {
          "internalType": "bytes4",
          "name": "interfaceId",
          "type": "bytes4"
        }
      ],
      "name": "supportsInterface",
      "outputs": [
        {
          "internalType": "bool",
          "name": "",
          "type": "bool"
        }
      ],
      "stateMutability": "view",
      "type": "function"
    },
    {
      "inputs": [],
      "name": "symbol",
      "outputs": [
        {
          "internalType": "string",
          "name": "",
          "type": "string"
        }
      ],
      "stateMutability": "view",
      "type": "function"
    },
    {
      "inputs": [],
      "name": "tokenCount",
      "outputs": [
        {
          "internalType": "uint256",
          "name": "",
          "type": "uint256"
        }
      ],
      "stateMutability": "view",
      "type": "function"
    },
    {
      "inputs": [
        {
          "internalType": "address",
          "name": "newOwner",
          "type": "address"
        }
      ],
      "name": "transferOwnership",
      "outputs": [],
      "stateMutability": "nonpayable",
      "type": "function"
    },
    {
      "inputs": [
        {
          "internalType": "uint256",
          "name": "_tokenId",
          "type": "uint256"
        }
      ],
      "name": "uri",
      "outputs": [
        {
          "internalType": "string",
          "name": "",
          "type": "string"
        }
      ],
      "stateMutability": "view",
      "type": "function"
    }
  ],
  "bytecode": "0x60806040523480156200001157600080fd5b5060405162003875380380620038758339818101604052810190620000379190620002ca565b806200004981620000be60201b60201c565b506200006a6200005e620000da60201b60201c565b620000e260201b60201c565b826004908051906020019062000082929190620001a8565b5081600590805190602001906200009b929190620001a8565b508060079080519060200190620000b4929190620001a8565b50505050620004db565b8060029080519060200190620000d6929190620001a8565b5050565b600033905090565b6000600360009054906101000a900473ffffffffffffffffffffffffffffffffffffffff16905081600360006101000a81548173ffffffffffffffffffffffffffffffffffffffff021916908373ffffffffffffffffffffffffffffffffffffffff1602179055508173ffffffffffffffffffffffffffffffffffffffff168173ffffffffffffffffffffffffffffffffffffffff167f8be0079c531659141344cd1fd0a4f28419497f9722a3daafe3b4186f6b6457e060405160405180910390a35050565b828054620001b69062000400565b90600052602060002090601f016020900481019282620001da576000855562000226565b82601f10620001f557805160ff191683800117855562000226565b8280016001018555821562000226579182015b828111156200022557825182559160200191906001019062000208565b5b50905062000235919062000239565b5090565b5b80821115620002545760008160009055506001016200023a565b5090565b60006200026f620002698462000394565b6200036b565b9050828152602081018484840111156200028857600080fd5b62000295848285620003ca565b509392505050565b600082601f830112620002af57600080fd5b8151620002c184826020860162000258565b91505092915050565b600080600060608486031215620002e057600080fd5b600084015167ffffffffffffffff811115620002fb57600080fd5b62000309868287016200029d565b935050602084015167ffffffffffffffff8111156200032757600080fd5b62000335868287016200029d565b925050604084015167ffffffffffffffff8111156200035357600080fd5b62000361868287016200029d565b9150509250925092565b6000620003776200038a565b905062000385828262000436565b919050565b6000604051905090565b600067ffffffffffffffff821115620003b257620003b16200049b565b5b620003bd82620004ca565b9050602081019050919050565b60005b83811015620003ea578082015181840152602081019050620003cd565b83811115620003fa576000848401525b50505050565b600060028204905060018216806200041957607f821691505b6020821081141562000430576200042f6200046c565b5b50919050565b6200044182620004ca565b810181811067ffffffffffffffff821117156200046357620004626200049b565b5b80604052505050565b7f4e487b7100000000000000000000000000000000000000000000000000000000600052602260045260246000fd5b7f4e487b7100000000000000000000000000000000000000000000000000000000600052604160045260246000fd5b6000601f19601f8301169050919050565b61338a80620004eb6000396000f3fe608060405234801561001057600080fd5b50600436106100ff5760003560e01c806395d89b4111610097578063a22cb46511610066578063a22cb4651461029c578063e985e9c5146102b8578063f242432a146102e8578063f2fde38b14610304576100ff565b806395d89b41146102265780639abc8320146102445780639f181b5e14610262578063a0712d6814610280576100ff565b80632eb2c2d6116100d35780632eb2c2d6146101b25780634e1273f4146101ce578063715018a6146101fe5780638da5cb5b14610208576100ff565b8062fdd58e1461010457806301ffc9a71461013457806306fdde03146101645780630e89341c14610182575b600080fd5b61011e6004803603810190610119919061216c565b610320565b60405161012b919061298f565b60405180910390f35b61014e60048036038101906101499190612214565b6103e9565b60405161015b91906127b2565b60405180910390f35b61016c6104cb565b60405161017991906127cd565b60405180910390f35b61019c60048036038101906101979190612266565b610559565b6040516101a991906127cd565b60405180910390f35b6101cc60048036038101906101c79190611fe2565b61058d565b005b6101e860048036038101906101e391906121a8565b61062e565b6040516101f59190612759565b60405180910390f35b6102066107df565b005b610210610867565b60405161021d919061267c565b60405180910390f35b61022e610891565b60405161023b91906127cd565b60405180910390f35b61024c61091f565b60405161025991906127cd565b60405180910390f35b61026a6109ad565b604051610277919061298f565b60405180910390f35b61029a60048036038101906102959190612266565b6109b3565b005b6102b660048036038101906102b19190612130565b610a69565b005b6102d260048036038101906102cd9190611fa6565b610a7f565b6040516102df91906127b2565b60405180910390f35b61030260048036038101906102fd91906120a1565b610b13565b005b61031e60048036038101906103199190611f7d565b610bb4565b005b60008073ffffffffffffffffffffffffffffffffffffffff168373ffffffffffffffffffffffffffffffffffffffff161415610391576040517f08c379a00000000000000000000000000000000000000000000000000000000081526004016103889061282f565b60405180910390fd5b60008083815260200190815260200160002060008473ffffffffffffffffffffffffffffffffffffffff1673ffffffffffffffffffffffffffffffffffffffff16815260200190815260200160002054905092915050565b60007fd9b67a26000000000000000000000000000000000000000000000000000000007bffffffffffffffffffffffffffffffffffffffffffffffffffffffff1916827bffffffffffffffffffffffffffffffffffffffffffffffffffffffff191614806104b457507f0e89341c000000000000000000000000000000000000000000000000000000007bffffffffffffffffffffffffffffffffffffffffffffffffffffffff1916827bffffffffffffffffffffffffffffffffffffffffffffffffffffffff1916145b806104c457506104c382610cac565b5b9050919050565b600480546104d890612c83565b80601f016020809104026020016040519081016040528092919081815260200182805461050490612c83565b80156105515780601f1061052657610100808354040283529160200191610551565b820191906000526020600020905b81548152906001019060200180831161053457829003601f168201915b505050505081565b6060600761056683610d16565b60405160200161057792919061264d565b6040516020818303038152906040529050919050565b610595610ec3565b73ffffffffffffffffffffffffffffffffffffffff168573ffffffffffffffffffffffffffffffffffffffff1614806105db57506105da856105d5610ec3565b610a7f565b5b61061a576040517f08c379a0000000000000000000000000000000000000000000000000000000008152600401610611906128af565b60405180910390fd5b6106278585858585610ecb565b5050505050565b60608151835114610674576040517f08c379a000000000000000000000000000000000000000000000000000000000815260040161066b9061292f565b60405180910390fd5b6000835167ffffffffffffffff8111156106b7577f4e487b7100000000000000000000000000000000000000000000000000000000600052604160045260246000fd5b6040519080825280602002602001820160405280156106e55781602001602082028036833780820191505090505b50905060005b84518110156107d45761077e858281518110610730577f4e487b7100000000000000000000000000000000000000000000000000000000600052603260045260246000fd5b6020026020010151858381518110610771577f4e487b7100000000000000000000000000000000000000000000000000000000600052603260045260246000fd5b6020026020010151610320565b8282815181106107b7577f4e487b7100000000000000000000000000000000000000000000000000000000600052603260045260246000fd5b602002602001018181525050806107cd90612ce6565b90506106eb565b508091505092915050565b6107e7610ec3565b73ffffffffffffffffffffffffffffffffffffffff16610805610867565b73ffffffffffffffffffffffffffffffffffffffff161461085b576040517f08c379a0000000000000000000000000000000000000000000000000000000008152600401610852906128ef565b60405180910390fd5b6108656000611239565b565b6000600360009054906101000a900473ffffffffffffffffffffffffffffffffffffffff16905090565b6005805461089e90612c83565b80601f01602080910402602001604051908101604052809291908181526020018280546108ca90612c83565b80156109175780601f106108ec57610100808354040283529160200191610917565b820191906000526020600020905b8154815290600101906020018083116108fa57829003601f168201915b505050505081565b6007805461092c90612c83565b80601f016020809104026020016040519081016040528092919081815260200182805461095890612c83565b80156109a55780601f1061097a576101008083540402835291602001916109a5565b820191906000526020600020905b81548152906001019060200180831161098857829003601f168201915b505050505081565b60065481565b6109bb610ec3565b73ffffffffffffffffffffffffffffffffffffffff166109d9610867565b73ffffffffffffffffffffffffffffffffffffffff1614610a2f576040517f08c379a0000000000000000000000000000000000000000000000000000000008152600401610a26906128ef565b60405180910390fd5b600160066000828254610a429190612b12565b92505081905550610a663360065483604051806020016040528060008152506112ff565b50565b610a7b610a74610ec3565b83836114b0565b5050565b6000600160008473ffffffffffffffffffffffffffffffffffffffff1673ffffffffffffffffffffffffffffffffffffffff16815260200190815260200160002060008373ffffffffffffffffffffffffffffffffffffffff1673ffffffffffffffffffffffffffffffffffffffff16815260200190815260200160002060009054906101000a900460ff16905092915050565b610b1b610ec3565b73ffffffffffffffffffffffffffffffffffffffff168573ffffffffffffffffffffffffffffffffffffffff161480610b615750610b6085610b5b610ec3565b610a7f565b5b610ba0576040517f08c379a0000000000000000000000000000000000000000000000000000000008152600401610b979061286f565b60405180910390fd5b610bad858585858561161d565b5050505050565b610bbc610ec3565b73ffffffffffffffffffffffffffffffffffffffff16610bda610867565b73ffffffffffffffffffffffffffffffffffffffff1614610c30576040517f08c379a0000000000000000000000000000000000000000000000000000000008152600401610c27906128ef565b60405180910390fd5b600073ffffffffffffffffffffffffffffffffffffffff168173ffffffffffffffffffffffffffffffffffffffff161415610ca0576040517f08c379a0000000000000000000000000000000000000000000000000000000008152600401610c979061284f565b60405180910390fd5b610ca981611239565b50565b60007f01ffc9a7000000000000000000000000000000000000000000000000000000007bffffffffffffffffffffffffffffffffffffffffffffffffffffffff1916827bffffffffffffffffffffffffffffffffffffffffffffffffffffffff1916149050919050565b60606000821415610d5e576040518060400160405280600181526020017f30000000000000000000000000000000000000000000000000000000000000008152509050610ebe565b600082905060005b60008214610d90578080610d7990612ce6565b915050600a82610d899190612b68565b9150610d66565b60008167ffffffffffffffff811115610dd2577f4e487b7100000000000000000000000000000000000000000000000000000000600052604160045260246000fd5b6040519080825280601f01601f191660200182016040528015610e045781602001600182028036833780820191505090505b5090505b60008514610eb757600182610e1d9190612b99565b9150600a85610e2c9190612d2f565b6030610e389190612b12565b60f81b818381518110610e74577f4e487b7100000000000000000000000000000000000000000000000000000000600052603260045260246000fd5b60200101907effffffffffffffffffffffffffffffffffffffffffffffffffffffffffffff1916908160001a905350600a85610eb09190612b68565b9450610e08565b8093505050505b919050565b600033905090565b8151835114610f0f576040517f08c379a0000000000000000000000000000000000000000000000000000000008152600401610f069061294f565b60405180910390fd5b600073ffffffffffffffffffffffffffffffffffffffff168473ffffffffffffffffffffffffffffffffffffffff161415610f7f576040517f08c379a0000000000000000000000000000000000000000000000000000000008152600401610f769061288f565b60405180910390fd5b6000610f89610ec3565b9050610f998187878787876118b9565b60005b8451811015611196576000858281518110610fe0577f4e487b7100000000000000000000000000000000000000000000000000000000600052603260045260246000fd5b602002602001015190506000858381518110611025577f4e487b7100000000000000000000000000000000000000000000000000000000600052603260045260246000fd5b60200260200101519050600080600084815260200190815260200160002060008b73ffffffffffffffffffffffffffffffffffffffff1673ffffffffffffffffffffffffffffffffffffffff168152602001908152602001600020549050818110156110c6576040517f08c379a00000000000000000000000000000000000000000000000000000000081526004016110bd906128cf565b60405180910390fd5b81810360008085815260200190815260200160002060008c73ffffffffffffffffffffffffffffffffffffffff1673ffffffffffffffffffffffffffffffffffffffff168152602001908152602001600020819055508160008085815260200190815260200160002060008b73ffffffffffffffffffffffffffffffffffffffff1673ffffffffffffffffffffffffffffffffffffffff168152602001908152602001600020600082825461117b9190612b12565b925050819055505050508061118f90612ce6565b9050610f9c565b508473ffffffffffffffffffffffffffffffffffffffff168673ffffffffffffffffffffffffffffffffffffffff168273ffffffffffffffffffffffffffffffffffffffff167f4a39dc06d4c0dbc64b70af90fd698a233a518aa5d07e595d983b8c0526c8f7fb878760405161120d92919061277b565b60405180910390a46112238187878787876118c1565b6112318187878787876118c9565b505050505050565b6000600360009054906101000a900473ffffffffffffffffffffffffffffffffffffffff16905081600360006101000a81548173ffffffffffffffffffffffffffffffffffffffff021916908373ffffffffffffffffffffffffffffffffffffffff1602179055508173ffffffffffffffffffffffffffffffffffffffff168173ffffffffffffffffffffffffffffffffffffffff167f8be0079c531659141344cd1fd0a4f28419497f9722a3daafe3b4186f6b6457e060405160405180910390a35050565b600073ffffffffffffffffffffffffffffffffffffffff168473ffffffffffffffffffffffffffffffffffffffff16141561136f576040517f08c379a00000000000000000000000000000000000000000000000000000000081526004016113669061296f565b60405180910390fd5b6000611379610ec3565b9050600061138685611ab0565b9050600061139385611ab0565b90506113a4836000898585896118b9565b8460008088815260200190815260200160002060008973ffffffffffffffffffffffffffffffffffffffff1673ffffffffffffffffffffffffffffffffffffffff16815260200190815260200160002060008282546114039190612b12565b925050819055508673ffffffffffffffffffffffffffffffffffffffff16600073ffffffffffffffffffffffffffffffffffffffff168473ffffffffffffffffffffffffffffffffffffffff167fc3d58168c5ae7397731d063d5bbf3d657854427343f4c083240f7aacaa2d0f6289896040516114819291906129aa565b60405180910390a4611498836000898585896118c1565b6114a783600089898989611b76565b50505050505050565b8173ffffffffffffffffffffffffffffffffffffffff168373ffffffffffffffffffffffffffffffffffffffff16141561151f576040517f08c379a00000000000000000000000000000000000000000000000000000000081526004016115169061290f565b60405180910390fd5b80600160008573ffffffffffffffffffffffffffffffffffffffff1673ffffffffffffffffffffffffffffffffffffffff16815260200190815260200160002060008473ffffffffffffffffffffffffffffffffffffffff1673ffffffffffffffffffffffffffffffffffffffff16815260200190815260200160002060006101000a81548160ff0219169083151502179055508173ffffffffffffffffffffffffffffffffffffffff168373ffffffffffffffffffffffffffffffffffffffff167f17307eab39ab6107e8899845ad3d59bd9653f200f220920489ca2b5937696c318360405161161091906127b2565b60405180910390a3505050565b600073ffffffffffffffffffffffffffffffffffffffff168473ffffffffffffffffffffffffffffffffffffffff16141561168d576040517f08c379a00000000000000000000000000000000000000000000000000000000081526004016116849061288f565b60405180910390fd5b6000611697610ec3565b905060006116a485611ab0565b905060006116b185611ab0565b90506116c18389898585896118b9565b600080600088815260200190815260200160002060008a73ffffffffffffffffffffffffffffffffffffffff1673ffffffffffffffffffffffffffffffffffffffff16815260200190815260200160002054905085811015611758576040517f08c379a000000000000000000000000000000000000000000000000000000000815260040161174f906128cf565b60405180910390fd5b85810360008089815260200190815260200160002060008b73ffffffffffffffffffffffffffffffffffffffff1673ffffffffffffffffffffffffffffffffffffffff168152602001908152602001600020819055508560008089815260200190815260200160002060008a73ffffffffffffffffffffffffffffffffffffffff1673ffffffffffffffffffffffffffffffffffffffff168152602001908152602001600020600082825461180d9190612b12565b925050819055508773ffffffffffffffffffffffffffffffffffffffff168973ffffffffffffffffffffffffffffffffffffffff168573ffffffffffffffffffffffffffffffffffffffff167fc3d58168c5ae7397731d063d5bbf3d657854427343f4c083240f7aacaa2d0f628a8a60405161188a9291906129aa565b60405180910390a46118a0848a8a86868a6118c1565b6118ae848a8a8a8a8a611b76565b505050505050505050565b505050505050565b505050505050565b6118e88473ffffffffffffffffffffffffffffffffffffffff16611d5d565b15611aa8578373ffffffffffffffffffffffffffffffffffffffff1663bc197c8187878686866040518663ffffffff1660e01b815260040161192e959493929190612697565b602060405180830381600087803b15801561194857600080fd5b505af192505050801561197957506040513d601f19601f82011682018060405250810190611976919061223d565b60015b611a1f57611985612e1c565b806308c379a014156119e2575061199a613262565b806119a557506119e4565b806040517f08c379a00000000000000000000000000000000000000000000000000000000081526004016119d991906127cd565b60405180910390fd5b505b6040517f08c379a0000000000000000000000000000000000000000000000000000000008152600401611a16906127ef565b60405180910390fd5b63bc197c8160e01b7bffffffffffffffffffffffffffffffffffffffffffffffffffffffff1916817bffffffffffffffffffffffffffffffffffffffffffffffffffffffff191614611aa6576040517f08c379a0000000000000000000000000000000000000000000000000000000008152600401611a9d9061280f565b60405180910390fd5b505b505050505050565b60606000600167ffffffffffffffff811115611af5577f4e487b7100000000000000000000000000000000000000000000000000000000600052604160045260246000fd5b604051908082528060200260200182016040528015611b235781602001602082028036833780820191505090505b5090508281600081518110611b61577f4e487b7100000000000000000000000000000000000000000000000000000000600052603260045260246000fd5b60200260200101818152505080915050919050565b611b958473ffffffffffffffffffffffffffffffffffffffff16611d5d565b15611d55578373ffffffffffffffffffffffffffffffffffffffff1663f23a6e6187878686866040518663ffffffff1660e01b8152600401611bdb9594939291906126ff565b602060405180830381600087803b158015611bf557600080fd5b505af1925050508015611c2657506040513d601f19601f82011682018060405250810190611c23919061223d565b60015b611ccc57611c32612e1c565b806308c379a01415611c8f5750611c47613262565b80611c525750611c91565b806040517f08c379a0000000000000000000000000000000000000000000000000000000008152600401611c8691906127cd565b60405180910390fd5b505b6040517f08c379a0000000000000000000000000000000000000000000000000000000008152600401611cc3906127ef565b60405180910390fd5b63f23a6e6160e01b7bffffffffffffffffffffffffffffffffffffffffffffffffffffffff1916817bffffffffffffffffffffffffffffffffffffffffffffffffffffffff191614611d53576040517f08c379a0000000000000000000000000000000000000000000000000000000008152600401611d4a9061280f565b60405180910390fd5b505b505050505050565b6000808273ffffffffffffffffffffffffffffffffffffffff163b119050919050565b6000611d93611d8e846129f8565b6129d3565b90508083825260208201905082856020860282011115611db257600080fd5b60005b85811015611de25781611dc88882611e96565b845260208401935060208301925050600181019050611db5565b5050509392505050565b6000611dff611dfa84612a24565b6129d3565b90508083825260208201905082856020860282011115611e1e57600080fd5b60005b85811015611e4e5781611e348882611f68565b845260208401935060208301925050600181019050611e21565b5050509392505050565b6000611e6b611e6684612a50565b6129d3565b905082815260208101848484011115611e8357600080fd5b611e8e848285612c41565b509392505050565b600081359050611ea5816132f8565b92915050565b600082601f830112611ebc57600080fd5b8135611ecc848260208601611d80565b91505092915050565b600082601f830112611ee657600080fd5b8135611ef6848260208601611dec565b91505092915050565b600081359050611f0e8161330f565b92915050565b600081359050611f2381613326565b92915050565b600081519050611f3881613326565b92915050565b600082601f830112611f4f57600080fd5b8135611f5f848260208601611e58565b91505092915050565b600081359050611f778161333d565b92915050565b600060208284031215611f8f57600080fd5b6000611f9d84828501611e96565b91505092915050565b60008060408385031215611fb957600080fd5b6000611fc785828601611e96565b9250506020611fd885828601611e96565b9150509250929050565b600080600080600060a08688031215611ffa57600080fd5b600061200888828901611e96565b955050602061201988828901611e96565b945050604086013567ffffffffffffffff81111561203657600080fd5b61204288828901611ed5565b935050606086013567ffffffffffffffff81111561205f57600080fd5b61206b88828901611ed5565b925050608086013567ffffffffffffffff81111561208857600080fd5b61209488828901611f3e565b9150509295509295909350565b600080600080600060a086880312156120b957600080fd5b60006120c788828901611e96565b95505060206120d888828901611e96565b94505060406120e988828901611f68565b93505060606120fa88828901611f68565b925050608086013567ffffffffffffffff81111561211757600080fd5b61212388828901611f3e565b9150509295509295909350565b6000806040838503121561214357600080fd5b600061215185828601611e96565b925050602061216285828601611eff565b9150509250929050565b6000806040838503121561217f57600080fd5b600061218d85828601611e96565b925050602061219e85828601611f68565b9150509250929050565b600080604083850312156121bb57600080fd5b600083013567ffffffffffffffff8111156121d557600080fd5b6121e185828601611eab565b925050602083013567ffffffffffffffff8111156121fe57600080fd5b61220a85828601611ed5565b9150509250929050565b60006020828403121561222657600080fd5b600061223484828501611f14565b91505092915050565b60006020828403121561224f57600080fd5b600061225d84828501611f29565b91505092915050565b60006020828403121561227857600080fd5b600061228684828501611f68565b91505092915050565b600061229b838361262f565b60208301905092915050565b6122b081612bcd565b82525050565b60006122c182612aa6565b6122cb8185612ad4565b93506122d683612a81565b8060005b838110156123075781516122ee888261228f565b97506122f983612ac7565b9250506001810190506122da565b5085935050505092915050565b61231d81612bdf565b82525050565b600061232e82612ab1565b6123388185612ae5565b9350612348818560208601612c50565b61235181612e3e565b840191505092915050565b600061236782612abc565b6123718185612af6565b9350612381818560208601612c50565b61238a81612e3e565b840191505092915050565b60006123a082612abc565b6123aa8185612b07565b93506123ba818560208601612c50565b80840191505092915050565b600081546123d381612c83565b6123dd8186612b07565b945060018216600081146123f857600181146124095761243c565b60ff1983168652818601935061243c565b61241285612a91565b60005b8381101561243457815481890152600182019150602081019050612415565b838801955050505b50505092915050565b6000612452603483612af6565b915061245d82612e5c565b604082019050919050565b6000612475602883612af6565b915061248082612eab565b604082019050919050565b6000612498602b83612af6565b91506124a382612efa565b604082019050919050565b60006124bb602683612af6565b91506124c682612f49565b604082019050919050565b60006124de602983612af6565b91506124e982612f98565b604082019050919050565b6000612501602583612af6565b915061250c82612fe7565b604082019050919050565b6000612524603283612af6565b915061252f82613036565b604082019050919050565b6000612547602a83612af6565b915061255282613085565b604082019050919050565b600061256a600583612b07565b9150612575826130d4565b600582019050919050565b600061258d602083612af6565b9150612598826130fd565b602082019050919050565b60006125b0602983612af6565b91506125bb82613126565b604082019050919050565b60006125d3602983612af6565b91506125de82613175565b604082019050919050565b60006125f6602883612af6565b9150612601826131c4565b604082019050919050565b6000612619602183612af6565b915061262482613213565b604082019050919050565b61263881612c37565b82525050565b61264781612c37565b82525050565b600061265982856123c6565b91506126658284612395565b91506126708261255d565b91508190509392505050565b600060208201905061269160008301846122a7565b92915050565b600060a0820190506126ac60008301886122a7565b6126b960208301876122a7565b81810360408301526126cb81866122b6565b905081810360608301526126df81856122b6565b905081810360808301526126f38184612323565b90509695505050505050565b600060a08201905061271460008301886122a7565b61272160208301876122a7565b61272e604083018661263e565b61273b606083018561263e565b818103608083015261274d8184612323565b90509695505050505050565b6000602082019050818103600083015261277381846122b6565b905092915050565b6000604082019050818103600083015261279581856122b6565b905081810360208301526127a981846122b6565b90509392505050565b60006020820190506127c76000830184612314565b92915050565b600060208201905081810360008301526127e7818461235c565b905092915050565b6000602082019050818103600083015261280881612445565b9050919050565b6000602082019050818103600083015261282881612468565b9050919050565b600060208201905081810360008301526128488161248b565b9050919050565b60006020820190508181036000830152612868816124ae565b9050919050565b60006020820190508181036000830152612888816124d1565b9050919050565b600060208201905081810360008301526128a8816124f4565b9050919050565b600060208201905081810360008301526128c881612517565b9050919050565b600060208201905081810360008301526128e88161253a565b9050919050565b6000602082019050818103600083015261290881612580565b9050919050565b60006020820190508181036000830152612928816125a3565b9050919050565b60006020820190508181036000830152612948816125c6565b9050919050565b60006020820190508181036000830152612968816125e9565b9050919050565b600060208201905081810360008301526129888161260c565b9050919050565b60006020820190506129a4600083018461263e565b92915050565b60006040820190506129bf600083018561263e565b6129cc602083018461263e565b9392505050565b60006129dd6129ee565b90506129e98282612cb5565b919050565b6000604051905090565b600067ffffffffffffffff821115612a1357612a12612ded565b5b602082029050602081019050919050565b600067ffffffffffffffff821115612a3f57612a3e612ded565b5b602082029050602081019050919050565b600067ffffffffffffffff821115612a6b57612a6a612ded565b5b612a7482612e3e565b9050602081019050919050565b6000819050602082019050919050565b60008190508160005260206000209050919050565b600081519050919050565b600081519050919050565b600081519050919050565b6000602082019050919050565b600082825260208201905092915050565b600082825260208201905092915050565b600082825260208201905092915050565b600081905092915050565b6000612b1d82612c37565b9150612b2883612c37565b9250827fffffffffffffffffffffffffffffffffffffffffffffffffffffffffffffffff03821115612b5d57612b5c612d60565b5b828201905092915050565b6000612b7382612c37565b9150612b7e83612c37565b925082612b8e57612b8d612d8f565b5b828204905092915050565b6000612ba482612c37565b9150612baf83612c37565b925082821015612bc257612bc1612d60565b5b828203905092915050565b6000612bd882612c17565b9050919050565b60008115159050919050565b60007fffffffff0000000000000000000000000000000000000000000000000000000082169050919050565b600073ffffffffffffffffffffffffffffffffffffffff82169050919050565b6000819050919050565b82818337600083830152505050565b60005b83811015612c6e578082015181840152602081019050612c53565b83811115612c7d576000848401525b50505050565b60006002820490506001821680612c9b57607f821691505b60208210811415612caf57612cae612dbe565b5b50919050565b612cbe82612e3e565b810181811067ffffffffffffffff82111715612cdd57612cdc612ded565b5b80604052505050565b6000612cf182612c37565b91507fffffffffffffffffffffffffffffffffffffffffffffffffffffffffffffffff821415612d2457612d23612d60565b5b600182019050919050565b6000612d3a82612c37565b9150612d4583612c37565b925082612d5557612d54612d8f565b5b828206905092915050565b7f4e487b7100000000000000000000000000000000000000000000000000000000600052601160045260246000fd5b7f4e487b7100000000000000000000000000000000000000000000000000000000600052601260045260246000fd5b7f4e487b7100000000000000000000000000000000000000000000000000000000600052602260045260246000fd5b7f4e487b7100000000000000000000000000000000000000000000000000000000600052604160045260246000fd5b600060033d1115612e3b5760046000803e612e38600051612e4f565b90505b90565b6000601f19601f8301169050919050565b60008160e01c9050919050565b7f455243313135353a207472616e7366657220746f206e6f6e204552433131353560008201527f526563656976657220696d706c656d656e746572000000000000000000000000602082015250565b7f455243313135353a204552433131353552656365697665722072656a6563746560008201527f6420746f6b656e73000000000000000000000000000000000000000000000000602082015250565b7f455243313135353a2062616c616e636520717565727920666f7220746865207a60008201527f65726f2061646472657373000000000000000000000000000000000000000000602082015250565b7f4f776e61626c653a206e6577206f776e657220697320746865207a65726f206160008201527f6464726573730000000000000000000000000000000000000000000000000000602082015250565b7f455243313135353a2063616c6c6572206973206e6f74206f776e6572206e6f7260008201527f20617070726f7665640000000000000000000000000000000000000000000000602082015250565b7f455243313135353a207472616e7366657220746f20746865207a65726f20616460008201527f6472657373000000000000000000000000000000000000000000000000000000602082015250565b7f455243313135353a207472616e736665722063616c6c6572206973206e6f742060008201527f6f776e6572206e6f7220617070726f7665640000000000000000000000000000602082015250565b7f455243313135353a20696e73756666696369656e742062616c616e636520666f60008201527f72207472616e7366657200000000000000000000000000000000000000000000602082015250565b7f2e6a736f6e000000000000000000000000000000000000000000000000000000600082015250565b7f4f776e61626c653a2063616c6c6572206973206e6f7420746865206f776e6572600082015250565b7f455243313135353a2073657474696e6720617070726f76616c2073746174757360008201527f20666f722073656c660000000000000000000000000000000000000000000000602082015250565b7f455243313135353a206163636f756e747320616e6420696473206c656e67746860008201527f206d69736d617463680000000000000000000000000000000000000000000000602082015250565b7f455243313135353a2069647320616e6420616d6f756e7473206c656e6774682060008201527f6d69736d61746368000000000000000000000000000000000000000000000000602082015250565b7f455243313135353a206d696e7420746f20746865207a65726f2061646472657360008201527f7300000000000000000000000000000000000000000000000000000000000000602082015250565b600060443d1015613272576132f5565b61327a6129ee565b60043d036004823e80513d602482011167ffffffffffffffff821117156132a25750506132f5565b808201805167ffffffffffffffff8111156132c057505050506132f5565b80602083010160043d0385018111156132dd5750505050506132f5565b6132ec82602001850186612cb5565b82955050505050505b90565b61330181612bcd565b811461330c57600080fd5b50565b61331881612bdf565b811461332357600080fd5b50565b61332f81612beb565b811461333a57600080fd5b50565b61334681612c37565b811461335157600080fd5b5056fea2646970667358221220c1c3acadaceb5e66cab5bf016a60dc062112a74845eefc9015ece09fdb3c2f1864736f6c63430008040033",
  "linkReferences": {},
  "deployedLinkReferences": {}
}